:020000020000FC
:040000000C94AF00AD
:100050000C94EB000E944D020E940C020E94A2012F
:100060000E94C70100E00F9302E00F930E942B0350
:100070000F910F9102E00F9304E50F930E9412037A
:100080000F910F910E94C70100E00F930AE00F93B8
:100090000E942B030F910F9102E00F930CE50F9339
:1000A0000E9412030F910F918030A1F2813049F02C
:1000B0008230A1F0833021F18430A1F18530F9F153
:1000C000C9CF30E230930B0130E035B96A3012E02D
:1000D000E1F164301AE0C9F16395BCCF38E03093A8
:1000E0000B0130E035B9623014E689F163301AE073
:1000F00071F1643011E059F16A3011E061F1AACF79
:1001000032E030930B0130E035B9623014E609F18A
:1001100063301AE0F1F0643011E0D9F06A3011E098
:10012000E1F098CF30E030930B0138E035B96A3018
:1001300014E059F062301AE041F06A958BCF30E05C
:1001400030930B0132E035B985CF612F83CF910F0A
:1001500081CF911B7FCFF10E7DCFF11A7BCF01E2D2
:100160000EBF0FEF0DBF0AEA00930A0104B907E8BA
:1001700000937A0000E400937C000E945C030E94DC
:100180004F030E945C030E941F010E947D010E9498
:100190005D0230E030930B0130E035B90E94D800A9
:1001A00080E064E070E090E031E0F32E0C942A00EF
:1001B0000F9300E00093800005E00093810002ECC3
:1001C0000093850006EF0093840001E000936F0028
:1001D0000F91789408950F931F932F9300913F00F0
:1001E0000F9302EC0093850006EF009384002AE051
:1001F00015B1212725B92AEA10910B012127209357
:100200000B010E9468010F9100933F002F911F91F5
:100210000F9118950F931F932F9300913F000F9309
:1002200002EC0093850006EF009384000E946801B1
:100230000F9100933F002F911F910F9118950F93ED
:1002400002E00F9300E00F9304E00F9302EE0F9390
:100250000E9405040F910F910F910F9102E00F93EF
:1002600001E10F9304E00F9302EF0F930E94050446
:100270000F910F910F910F9102E00F9300E50F93F3
:1002800005E00F930CE10F930E9405040F910F916D
:100290000F910F9102E00F9302E20F9305E00F938D
:1002A00004E00F930E9405040F910F910F910F919D
:1002B00002E00F9303E30F9305E00F9300E10F9328
:1002C0000E9405040F910F910F910F910F910895C6
:1002D0000F93072F0F93062F0F930E942B030F915D
:1002E0000F9102E00F9300E50F930E9412030F910C
:1002F0000F910F910E944D0208950F930E944F039A
:1003000000E00F9300E00F930E942B030F910F91D9
:1003100002E00F9300E00F930E9412030F910F91E0
:1003200001E00F9300E00F930E942B030F910F91B8
:1003300002E00F9301E10F930E9412030F910F91BE
:100340000F9108950F930E944F0300E00F9300E078
:100350000F930E942B030F910F9102E00F9302E283
:100360000F930E9412030F910F9101E00F9300E091
:100370000F930E942B030F910F9102E00F9303E361
:100380000F930E9412030F910F910F9108950F92F6
:100390001F922F921F933F92FF93EF93DF93CF9380
:1003A00010E3312E0F9302E00F9304E50F9305E065
:1003B0000F930EE10F930E9405040F910F910F917F
:1003C0000F910F91F2E0E4E5D2E0CCE5339621966F
:1003D0001F2D130D1883112710833197192F012E0C
:1003E0001AE0112E2224011458F02394011801144C
:1003F000E0F7030C00823197022C22240C94F301C5
:10040000030C0082CF91DF91EF91FF913F901F91FC
:100410002F901F900F9008953F932F931F930F934A
:1004200000917A00006400937A0000917A000074D1
:10043000E1F7009178001091790028EE33E002177F
:100440001307D4F422E330E002171307B8F023ECCB
:1004500030E002171307A0F02CE731E00217130772
:1004600088F02BE232E00217130770F026E133E048
:100470000217130758F032C080E00AC081E008C0BC
:1004800082E006C083E004C084E002C085E000C0D2
:100490000F911F912F913F9108953F932F931F9399
:1004A0001DE02FEF3FEF3A95F1F72A95D9F71A950E
:1004B000C1F71F912F913F9108953F932F931F9361
:1004C00012E52BE230E03A95F1F72A95E1F71A951B
:1004D000D1F700003F912F911F91089580E00C9477
:1004E0002A0020204E204D616B61726F77736B691B
:1004F0002000435343203233302D46616C6C20275B
:10050000313920006E3D202020205350443A2000F5
:10051000636E743A20202020763D20005F0020206A
:1005200020000C941E040F932F933F9300913200F0
:100530000F7D24FD00620093340000912C00077FA2
:1005400025FD086000932E0000910001077F26FD25
:10055000086000930201009100010F7E27FD0061F9
:10056000009302010091000100640093020131E058
:100570000E94E103009100010F7B009302013F9173
:100580002F910F9108952F933F930F93DF93CF9364
:10059000DEB7CDB729850E94930232E30E94E103C2
:1005A00022950E94930232E30E94E103CF91DF91F2
:1005B0000F913F912F9108950F933F932F93DF93C6
:1005C000CF93DEB7CDB72985009100010F7D009351
:1005D00002012F930E94C3022F91243018F432E0BD
:1005E0000E94EB03CF91DF912F913F910F910895DE
:1005F0000F932F93DF93CF93DEB7CDB7288500916C
:1006000000010062009302012F930E94C3022F9108
:1006100000916102039500936102CF91DF912F91C8
:100620000F9108950F931F93DF93CF93FF93EF9351
:10063000DEB7CDB7FB85EA851191103029F01F9305
:100640000E94F8021F91F8CFEF91FF91CF91DF91B7
:100650001F910F9108950F931F93DF93CF93DEB7F0
:10066000CDB70885198511301CF011E00C943B03BF
:100670000F300CF00FE01093600200936102113014
:1006800019F410EC0C94450310E8010F0F930E942D
:10069000DC020F91CF91DF911F910F9108950F937D
:1006A00001E00F930E94DC020F910027009360028B
:1006B000009361020F9108950F932F933F93009140
:1006C0003300006200933300009132000F7D0093ED
:1006D000340000912D00086000932D0000912C0043
:1006E000077F00932E000091010108600093010133
:1006F00000910001077F0093020100910101006158
:1007000000930101009100010F7E0093020100910E
:100710000101006200930101009100010F7D00932F
:1007200002010091010100640093010100910001A8
:100730000F7B009302013FE00E94EB0335E00E9433
:10074000EB0320E30E94930235E00E94EB0320E3D9
:100750000E94930257E03FE00E94EB035A95D9F7BD
:1007600020E30E94930232E30E94E10320E20E9410
:10077000930232E30E94E10308E20F930E94DC023D
:100780000F9108E00F930E94DC020F9101E00F939C
:100790000E94DC020F9132E00E94EB0306E00F930F
:1007A0000E94DC020F910CE00F930E94DC020F917B
:1007B000002700936002009361023F912F910F91F7
:1007C00008950F933F9305E00A95F1F73A95D9F70D
:1007D0003F910F9108950F931F933F93DF93CF9312
:1007E0000DEF309F012D0295007FD02F002D029537
:1007F000102F007F1F70C02FD12B2197F1F7CF91C1
:10080000DF913F911F910F9108950F93FF93EF9305
:10081000BF93AF93DF93CF93DEB7CDB7EB85FC8566
:10082000AD85BE85059100300D93E1F7CF91DF9145
:0C083000AF91BF91EF91FF910F910895DF
:00000001FF
